{
  "_format": "hh-sol-artifact-1",
  "contractName": "PlonkVerifier",
  "sourceName": "contracts/verifier.sol",
  "abi": [
    {
      "inputs": [
        {
          "internalType": "bytes",
          "name": "proof",
          "type": "bytes"
        },
        {
          "internalType": "uint256[]",
          "name": "pubSignals",
          "type": "uint256[]"
        }
      ],
      "name": "verifyProof",
      "outputs": [
        {
          "internalType": "bool",
          "name": "",
          "type": "bool"
        }
      ],
      "stateMutability": "view",
      "type": "function"
    }
  ],
  "bytecode": "0x608060405234801561001057600080fd5b50611a75806100206000396000f3fe608060405234801561001057600080fd5b506004361061002b5760003560e01c80631e8e1e1314610030575b600080fd5b61017d6004803603604081101561004657600080fd5b810190808035906020019064010000000081111561006357600080fd5b82018360208201111561007557600080fd5b8035906020019184600183028401116401000000008311171561009757600080fd5b91908080601f016020809104026020016040519081016040528093929190818152602001838380828437600081840152601f19601f820116905080830192505050505050509192919290803590602001906401000000008111156100fa57600080fd5b82018360208201111561010c57600080fd5b8035906020019184602083028401116401000000008311171561012e57600080fd5b919080806020026020016040519081016040528093929190818152602001838360200280828437600081840152601f19601f820116905080830192505050505050509192919290505050610195565b60405180821515815260200191505060405180910390f35b60006119d4565b600080600184846000805b82156101d157828405915084820286039050849550809450828202840390508293508092506101a7565b60018411156101df57600080fd5b60008612156101ee5788860195505b85965050505050505092915050565b60405181602084028301815160208301925060005b82841015610255578185527f30644e72e131a029b85045b68181585d2833e84879b9709143e1f593f0000001845183099150602085019450602084019350610212565b61027f7f30644e72e131a029b85045b68181585d2833e84879b9709143e1f593f00000018361019c565b91506020850394506020840393508592505b828411156102fb577f30644e72e131a029b85045b68181585d2833e84879b9709143e1f593f00000018551830990507f30644e72e131a029b85045b68181585d2833e84879b9709143e1f593f0000001845183099150808452602085039450602084039350610291565b81845250505050505050565b7f30644e72e131a029b85045b68181585d2833e84879b9709143e1f593f00000018110610338576000805260206000f35b50565b61032081511461034f576000805260206000f35b61035d610260820151610307565b61036b610280820151610307565b6103796102a0820151610307565b6103876102c0820151610307565b6103956102e0820151610307565b6103a3610300820151610307565b6103b1610320820151610307565b50565b60008060208501516102c085015260208301516102e08501526020800183015161030085015260406020018301516103208501526060602001830151610340850152608060200183015161036085015260a06020018301516103808501527f30644e72e131a029b85045b68181585d2833e84879b9709143e1f593f000000160e06102c08601200690508060208501527f30644e72e131a029b85045b68181585d2833e84879b9709143e1f593f00000016020808601200660408501527f30644e72e131a029b85045b68181585d2833e84879b9709143e1f593f0000001604060e08501200660008501527f30644e72e131a029b85045b68181585d2833e84879b9709143e1f593f000000160c06101208501200691508160608501527f30644e72e131a029b85045b68181585d2833e84879b9709143e1f593f000000182820960a08501527f30644e72e131a029b85045b68181585d2833e84879b9709143e1f593f000000182830991507f30644e72e131a029b85045b68181585d2833e84879b9709143e1f593f000000182830991507f30644e72e131a029b85045b68181585d2833e84879b9709143e1f593f000000182830991507f30644e72e131a029b85045b68181585d2833e84879b9709143e1f593f000000182830991507f30644e72e131a029b85045b68181585d2833e84879b9709143e1f593f000000182830991508160808501527f30644e72e131a029b85045b68181585d2833e84879b9709143e1f593f000000180600184030106915081610260850152816102808501527f30644e72e131a029b85045b68181585d2833e84879b9709143e1f593f000000160e0610260850120068060c08601527f30644e72e131a029b85045b68181585d2833e84879b9709143e1f593f000000181820992508260e08601527f30644e72e131a029b85045b68181585d2833e84879b9709143e1f593f00000018184099250826101008601527f30644e72e131a029b85045b68181585d2833e84879b9709143e1f593f00000018184099250826101208601527f30644e72e131a029b85045b68181585d2833e84879b9709143e1f593f00000018184099250826101408601527f30644e72e131a029b85045b68181585d2833e84879b9709143e1f593f00000018184099250826101608601527f30644e72e131a029b85045b68181585d2833e84879b9709143e1f593f000000160806101e086012006610180860152505050505050565b60017f30644e72e131a029b85045b68181585d2833e84879b9709143e1f593f0000001807f30644e72e131a029b85045b68181585d2833e84879b9709143e1f593f00000018360608601510301066020096102a08301526107a4600261028084016101fd565b610260820151600191507f30644e72e131a029b85045b68181585d2833e84879b9709143e1f593f0000001816102a0850151096102a0840152505050565b60007f30644e72e131a029b85045b68181585d2833e84879b9709143e1f593f0000001807f30644e72e131a029b85045b68181585d2833e84879b9709143e1f593f000000160208601516102a086015109830301069050806101a0830152505050565b60008060007f30644e72e131a029b85045b68181585d2833e84879b9709143e1f593f00000016101a08601516103208601510892507f30644e72e131a029b85045b68181585d2833e84879b9709143e1f593f000000160208601516102c08601510991507f30644e72e131a029b85045b68181585d2833e84879b9709143e1f593f0000001610260850151830891507f30644e72e131a029b85045b68181585d2833e84879b9709143e1f593f00000016040860151830891507f30644e72e131a029b85045b68181585d2833e84879b9709143e1f593f000000160208601516102e08601510990507f30644e72e131a029b85045b68181585d2833e84879b9709143e1f593f0000001610280850151820890507f30644e72e131a029b85045b68181585d2833e84879b9709143e1f593f00000016040860151820890507f30644e72e131a029b85045b68181585d2833e84879b9709143e1f593f000000181830991507f30644e72e131a029b85045b68181585d2833e84879b9709143e1f593f000000160408601516102a08601510890507f30644e72e131a029b85045b68181585d2833e84879b9709143e1f593f000000181830991507f30644e72e131a029b85045b68181585d2833e84879b9709143e1f593f0000001610300850151830991507f30644e72e131a029b85045b68181585d2833e84879b9709143e1f593f00000016000860151830991507f30644e72e131a029b85045b68181585d2833e84879b9709143e1f593f000000160008601516102a08701510990507f30644e72e131a029b85045b68181585d2833e84879b9709143e1f593f00000016000860151820990507f30644e72e131a029b85045b68181585d2833e84879b9709143e1f593f000000181830891507f30644e72e131a029b85045b68181585d2833e84879b9709143e1f593f0000001827f30644e72e131a029b85045b68181585d2833e84879b9709143e1f593f00000018501030692507f30644e72e131a029b85045b68181585d2833e84879b9709143e1f593f000000161028086015184099250826101c08601525050505050565b81518152602082015160208201525050565b6040518151815260208201516020820152825160408201526020830151606082015260408260808360066107d05a03fa80610ba4576000805260206000f35b50505050565b6000604051835181526020840151602082015284604082015260408160608360076107d05a03fa915081610be2576000805260206000f35b825160408201526020830151606082015260408360808360066107d05a03fa915081610c12576000805260206000f35b5050505050565b600060405183815284602082015285604082015260408160608360076107d05a03fa915081610c4c576000805260206000f35b825160408201526020830151606082015260408360808360066107d05a03fa915081610c7c576000805260206000f35b505050505050565b600060405183815284602082015285604082015260408360608360076107d05a03fa915081610cb7576000805260206000f35b505050505050565b6101e08201610cd26101e0830182610b53565b610ce6610180840151610220840183610baa565b505050565b60008061022084017f30644e72e131a029b85045b68181585d2833e84879b9709143e1f593f000000160c0860151610260860151099250610d6e837f261be7c06e51c8ac82198a458a6eaa21396b7925f47b9c2526d7b93d723ddbff7f1dfdb0dee0ae72f8b453f6f50f53ed5a693516cd3d788c873efa46f4b2dbc0ed84610c84565b7f30644e72e131a029b85045b68181585d2833e84879b9709143e1f593f000000161028085015184099250610de5837f2a2f9e99a1113e5a83301fb9a9d10318f981a1964ac2d5c2c1a65574c9a076c77f0797f788fb04802a88cd380b693fea5f255739eadfe53c87548ddf74b17040c684610c19565b7f30644e72e131a029b85045b68181585d2833e84879b9709143e1f593f000000160c0860151610280860151099250610e60837f209b7d3145a42f662f1be1db1d2ae4ce996c93c6077a531571ebe7e7aa081aef7f14c5fbf554550e2e7da50fca597ec6a50b28f93f8f6ce6dde8789fc7614d0c3384610c19565b7f30644e72e131a029b85045b68181585d2833e84879b9709143e1f593f000000160c08601516102a0860151099250610edb837f06a9e250ca0474dce97729066262a7a70d74579404a6ff859e7d8f6b6fa936be7f0e28650549e219971528a6c412188f8eca93756614fd4e538098d29d657fa2f584610c19565b60c08501519250610f2e837f0b9825015931fb90383a0191eb3fe74229020be27c4d00177b3b9f8949d72df67f132976aabc0b754bfa2f69b49e4e3f7939cb0840dbef253ca7288d937d26f2b284610c19565b7f30644e72e131a029b85045b68181585d2833e84879b9709143e1f593f000000160a08601516102608601510892507f30644e72e131a029b85045b68181585d2833e84879b9709143e1f593f00000016040860151840892507f30644e72e131a029b85045b68181585d2833e84879b9709143e1f593f000000160a086015160020991507f30644e72e131a029b85045b68181585d2833e84879b9709143e1f593f0000001610280850151830891507f30644e72e131a029b85045b68181585d2833e84879b9709143e1f593f00000016040860151830891507f30644e72e131a029b85045b68181585d2833e84879b9709143e1f593f000000182840992507f30644e72e131a029b85045b68181585d2833e84879b9709143e1f593f000000160a086015160030991507f30644e72e131a029b85045b68181585d2833e84879b9709143e1f593f00000016102a0850151830891507f30644e72e131a029b85045b68181585d2833e84879b9709143e1f593f00000016040860151830891507f30644e72e131a029b85045b68181585d2833e84879b9709143e1f593f000000182840992507f30644e72e131a029b85045b68181585d2833e84879b9709143e1f593f00000016000860151840992507f30644e72e131a029b85045b68181585d2833e84879b9709143e1f593f000000160c0860151840992507f30644e72e131a029b85045b68181585d2833e84879b9709143e1f593f000000160008601516102a08701510991507f30644e72e131a029b85045b68181585d2833e84879b9709143e1f593f00000016000860151830991507f30644e72e131a029b85045b68181585d2833e84879b9709143e1f593f000000160c0860151830991507f30644e72e131a029b85045b68181585d2833e84879b9709143e1f593f000000182840892507f30644e72e131a029b85045b68181585d2833e84879b9709143e1f593f0000001610180860151840892506112098360e0860183610baa565b7f30644e72e131a029b85045b68181585d2833e84879b9709143e1f593f00000016102c085015160208701510992507f30644e72e131a029b85045b68181585d2833e84879b9709143e1f593f0000001610260850151840892507f30644e72e131a029b85045b68181585d2833e84879b9709143e1f593f00000016040860151840892507f30644e72e131a029b85045b68181585d2833e84879b9709143e1f593f00000016102e085015160208701510991507f30644e72e131a029b85045b68181585d2833e84879b9709143e1f593f0000001610280850151830891507f30644e72e131a029b85045b68181585d2833e84879b9709143e1f593f00000016040860151830891507f30644e72e131a029b85045b68181585d2833e84879b9709143e1f593f000000182840992507f30644e72e131a029b85045b68181585d2833e84879b9709143e1f593f00000016000860151840992507f30644e72e131a029b85045b68181585d2833e84879b9709143e1f593f000000160c0860151840992507f30644e72e131a029b85045b68181585d2833e84879b9709143e1f593f00000016020860151840992507f30644e72e131a029b85045b68181585d2833e84879b9709143e1f593f0000001610300850151840992507f30644e72e131a029b85045b68181585d2833e84879b9709143e1f593f0000001837f30644e72e131a029b85045b68181585d2833e84879b9709143e1f593f000000103069250611473837f1f1bb35d0dadb5d1170a33b06740d811d80635b5bee8db2fec8c107e7e0372447f2360a7e25b33b40e4a26844d205c8fb47a43b86b5ab3fc5851daa9a6745d597484610c19565b611481610120850182610b65565b6080850151925061149783610160860183610baa565b7f30644e72e131a029b85045b68181585d2833e84879b9709143e1f593f000000183840992506114cc836101a0860183610baa565b6114de60e08601516020860183610baa565b6114f16101008601516060860183610baa565b61150461012086015160a0860183610baa565b6115556101408601517f106346c99c05084850ab65a81377a2928090a769a1e900ecaa5baf8dc82fc2677f2282d3c0f6d969bc7080421771fee7c94053e45b088ecc75f9d0cde6a687598f84610c19565b6115a66101608601517f06ceabef4e85a12237064bc7293ca75ae9b73342878b3544b391afdbb137b0557f1da8a56b9580b1b3c9e386fd436d8132f81cb4b460e56d9bb430dafcfee6750f84610c19565b6101c085015192507f30644e72e131a029b85045b68181585d2833e84879b9709143e1f593f00000018060c087015161032087015109840892507f30644e72e131a029b85045b68181585d2833e84879b9709143e1f593f00000018060e087015161026087015109840892507f30644e72e131a029b85045b68181585d2833e84879b9709143e1f593f00000018061010087015161028087015109840892507f30644e72e131a029b85045b68181585d2833e84879b9709143e1f593f0000001806101208701516102a087015109840892507f30644e72e131a029b85045b68181585d2833e84879b9709143e1f593f0000001806101408701516102c087015109840892507f30644e72e131a029b85045b68181585d2833e84879b9709143e1f593f0000001806101608701516102e087015109840892507f30644e72e131a029b85045b68181585d2833e84879b9709143e1f593f00000018061018087015161030087015109840892507f30644e72e131a029b85045b68181585d2833e84879b9709143e1f593f0000001837f30644e72e131a029b85045b68181585d2833e84879b9709143e1f593f000000103069250611766836002600184610c19565b6060850151925061177c836101e0860183610baa565b7f30644e72e131a029b85045b68181585d2833e84879b9709143e1f593f000000160608601516101808701510992507f30644e72e131a029b85045b68181585d2833e84879b9709143e1f593f00000017f09c532c6306b93d29678200d47c0b2a99c18d51b838eeb1d3eed4c533bb512d08409925061180083610220860183610baa565b5050505050565b60006040516101e0830151815260206101e08401015160208201527f07a8f72c258ba823186734cdee015a0ea7289bbbf4ce90438299bb87e1a2982860408201527f1de844724355bd7be014fe338e6d166255a9f81d95088b911341eaf7f5bf50d160608201527f0288a61b40cb2a1285b6ac5b3358e8ea7f0d0ccafca27afd4951fe58dddc4dd360808201527f10b0a08eaf06cd11af4fc147270eead01f82c5e6b90890f77ce2568bf77be22d60a082015261022083015160c08201526020610220840101517f30644e72e131a029b85045b68181585d97816a916871ca8d3c208c16d87cfd47817f30644e72e131a029b85045b68181585d97816a916871ca8d3c208c16d87cfd47030690508060e08301527f198e9393920d483a7260bfb731fb5d25f1aa493335a9e71297e485b7aef312c26101008301527f1800deef121f1e76426a00665e5c4479674322d4f75edadd46debd5cd992f6ed6101208301527f090689d0585ff075ec9e99ad690c3395bc4b313370b38ef355acdadcd122975b6101408301527f12c85ea5db8c6deb4aab71808dcb408fe3d1e7690c43d37b4ce6cc0166fa7daa6101608301526020826101808460086107d05a03fa825181169350505050919050565b6040516102c081016040526119e88461033b565b6119f38382866103b4565b6119fc8161073e565b611a0683826107e2565b611a108185610845565b611a1a8185610cbf565b611a248185610ceb565b611a2d81611807565b6102c082036040528060005260206000f3fea264697066735822122026c7f46880736d00f9df6ad25109fa89b1e780da4e103cfa4507decbb7458ca064736f6c63430007030033",
  "linkReferences": {},
  "deployedLinkReferences": {}
}